{
  "contractName": "ShowMeYourCat",
  "abi": [
    {
      "anonymous": false,
      "inputs": [
        {
          "indexed": false,
          "internalType": "uint256",
          "name": "id",
          "type": "uint256"
        },
        {
          "indexed": false,
          "internalType": "string",
          "name": "hash",
          "type": "string"
        },
        {
          "indexed": false,
          "internalType": "string",
          "name": "description",
          "type": "string"
        },
        {
          "indexed": false,
          "internalType": "uint256",
          "name": "tipAmount",
          "type": "uint256"
        },
        {
          "indexed": false,
          "internalType": "address payable",
          "name": "author",
          "type": "address"
        }
      ],
      "name": "ImageCreated",
      "type": "event"
    },
    {
      "anonymous": false,
      "inputs": [
        {
          "indexed": false,
          "internalType": "uint256",
          "name": "id",
          "type": "uint256"
        },
        {
          "indexed": false,
          "internalType": "string",
          "name": "hash",
          "type": "string"
        },
        {
          "indexed": false,
          "internalType": "string",
          "name": "description",
          "type": "string"
        },
        {
          "indexed": false,
          "internalType": "uint256",
          "name": "tipAmount",
          "type": "uint256"
        },
        {
          "indexed": false,
          "internalType": "address payable",
          "name": "author",
          "type": "address"
        }
      ],
      "name": "ImageTipped",
      "type": "event"
    },
    {
      "inputs": [],
      "name": "imageCount",
      "outputs": [
        {
          "internalType": "uint256",
          "name": "",
          "type": "uint256"
        }
      ],
      "stateMutability": "view",
      "type": "function",
      "constant": true
    },
    {
      "inputs": [
        {
          "internalType": "uint256",
          "name": "",
          "type": "uint256"
        }
      ],
      "name": "images",
      "outputs": [
        {
          "internalType": "uint256",
          "name": "id",
          "type": "uint256"
        },
        {
          "internalType": "string",
          "name": "hash",
          "type": "string"
        },
        {
          "internalType": "string",
          "name": "description",
          "type": "string"
        },
        {
          "internalType": "uint256",
          "name": "tipAmount",
          "type": "uint256"
        },
        {
          "internalType": "address payable",
          "name": "author",
          "type": "address"
        }
      ],
      "stateMutability": "view",
      "type": "function",
      "constant": true
    },
    {
      "inputs": [],
      "name": "name",
      "outputs": [
        {
          "internalType": "string",
          "name": "",
          "type": "string"
        }
      ],
      "stateMutability": "view",
      "type": "function",
      "constant": true
    },
    {
      "inputs": [
        {
          "internalType": "string",
          "name": "_imgHash",
          "type": "string"
        },
        {
          "internalType": "string",
          "name": "_description",
          "type": "string"
        }
      ],
      "name": "uploadImage",
      "outputs": [],
      "stateMutability": "nonpayable",
      "type": "function"
    },
    {
      "inputs": [
        {
          "internalType": "uint256",
          "name": "_id",
          "type": "uint256"
        }
      ],
      "name": "tipOwner",
      "outputs": [],
      "stateMutability": "payable",
      "type": "function",
      "payable": true
    }
  ],
  "bytecode": "0x60806040526040518060400160405280600d81526020017f53686f774d65596f75724361740000000000000000000000000000000000000081525060009080519060200190620000519291906200006b565b5060006001553480156200006457600080fd5b5062000180565b82805462000079906200014a565b90600052602060002090601f0160209004810192826200009d5760008555620000e9565b82601f10620000b857805160ff1916838001178555620000e9565b82800160010185558215620000e9579182015b82811115620000e8578251825591602001919060010190620000cb565b5b509050620000f89190620000fc565b5090565b5b8082111562000117576000816000905550600101620000fd565b5090565b7f4e487b7100000000000000000000000000000000000000000000000000000000600052602260045260246000fd5b600060028204905060018216806200016357607f821691505b602082108114156200017a57620001796200011b565b5b50919050565b610e0280620001906000396000f3fe60806040526004361061004a5760003560e01c806306fdde031461004f5780635611b8c81461007a578063848564821461009657806392053b63146100d7578063a91b831414610102575b600080fd5b34801561005b57600080fd5b5061006461012b565b604051610071919061092e565b60405180910390f35b610094600480360381019061008f919061099a565b6101b9565b005b3480156100a257600080fd5b506100bd60048036038101906100b8919061099a565b6104e9565b6040516100ce959493929190610a17565b60405180910390f35b3480156100e357600080fd5b506100ec61064f565b6040516100f99190610a78565b60405180910390f35b34801561010e57600080fd5b5061012960048036038101906101249190610bc8565b610655565b005b6000805461013890610c6f565b80601f016020809104026020016040519081016040528092919081815260200182805461016490610c6f565b80156101b15780601f10610186576101008083540402835291602001916101b1565b820191906000526020600020905b81548152906001019060200180831161019457829003601f168201915b505050505081565b6000811180156101cb57506001548111155b6101d457600080fd5b6000600260008381526020019081526020016000206040518060a00160405290816000820154815260200160018201805461020e90610c6f565b80601f016020809104026020016040519081016040528092919081815260200182805461023a90610c6f565b80156102875780601f1061025c57610100808354040283529160200191610287565b820191906000526020600020905b81548152906001019060200180831161026a57829003601f168201915b505050505081526020016002820180546102a090610c6f565b80601f01602080910402602001604051908101604052809291908181526020018280546102cc90610c6f565b80156103195780601f106102ee57610100808354040283529160200191610319565b820191906000526020600020905b8154815290600101906020018083116102fc57829003601f168201915b50505050508152602001600382015481526020016004820160009054906101000a900473ffffffffffffffffffffffffffffffffffffffff1673ffffffffffffffffffffffffffffffffffffffff1673ffffffffffffffffffffffffffffffffffffffff168152505090506000816080015190508073ffffffffffffffffffffffffffffffffffffffff166108fc349081150290604051600060405180830381858888f193505050501580156103d3573d6000803e3d6000fd5b503482606001516103e49190610cd0565b82606001818152505081600260008581526020019081526020016000206000820151816000015560208201518160010190805190602001906104279291906107f2565b5060408201518160020190805190602001906104449291906107f2565b506060820151816003015560808201518160040160006101000a81548173ffffffffffffffffffffffffffffffffffffffff021916908373ffffffffffffffffffffffffffffffffffffffff1602179055509050507f1be5317bca8d3f70dc1efe89958be71bff36cdca33fc00a6423e25eb2f1d492f83836020015184604001518560600151856040516104dc959493929190610a17565b60405180910390a1505050565b600260205280600052604060002060009150905080600001549080600101805461051290610c6f565b80601f016020809104026020016040519081016040528092919081815260200182805461053e90610c6f565b801561058b5780601f106105605761010080835404028352916020019161058b565b820191906000526020600020905b81548152906001019060200180831161056e57829003601f168201915b5050505050908060020180546105a090610c6f565b80601f01602080910402602001604051908101604052809291908181526020018280546105cc90610c6f565b80156106195780601f106105ee57610100808354040283529160200191610619565b820191906000526020600020905b8154815290600101906020018083116105fc57829003601f168201915b5050505050908060030154908060040160009054906101000a900473ffffffffffffffffffffffffffffffffffffffff16905085565b60015481565b600082511161066357600080fd5b600081511161067157600080fd5b600073ffffffffffffffffffffffffffffffffffffffff163373ffffffffffffffffffffffffffffffffffffffff1614156106ab57600080fd5b600180546106b99190610cd0565b6001819055506040518060a001604052806001548152602001838152602001828152602001600081526020013373ffffffffffffffffffffffffffffffffffffffff1681525060026000600154815260200190815260200160002060008201518160000155602082015181600101908051906020019061073a9291906107f2565b5060408201518160020190805190602001906107579291906107f2565b506060820151816003015560808201518160040160006101000a81548173ffffffffffffffffffffffffffffffffffffffff021916908373ffffffffffffffffffffffffffffffffffffffff1602179055509050507fc1d8dfa99b3f84f95d3f0bc4a768addeb97b83b20aef7f9cb6729e126bafd2f960015483836000336040516107e6959493929190610d6b565b60405180910390a15050565b8280546107fe90610c6f565b90600052602060002090601f0160209004810192826108205760008555610867565b82601f1061083957805160ff1916838001178555610867565b82800160010185558215610867579182015b8281111561086657825182559160200191906001019061084b565b5b5090506108749190610878565b5090565b5b80821115610891576000816000905550600101610879565b5090565b600081519050919050565b600082825260208201905092915050565b60005b838110156108cf5780820151818401526020810190506108b4565b838111156108de576000848401525b50505050565b6000601f19601f8301169050919050565b600061090082610895565b61090a81856108a0565b935061091a8185602086016108b1565b610923816108e4565b840191505092915050565b6000602082019050818103600083015261094881846108f5565b905092915050565b6000604051905090565b600080fd5b600080fd5b6000819050919050565b61097781610964565b811461098257600080fd5b50565b6000813590506109948161096e565b92915050565b6000602082840312156109b0576109af61095a565b5b60006109be84828501610985565b91505092915050565b6109d081610964565b82525050565b600073ffffffffffffffffffffffffffffffffffffffff82169050919050565b6000610a01826109d6565b9050919050565b610a11816109f6565b82525050565b600060a082019050610a2c60008301886109c7565b8181036020830152610a3e81876108f5565b90508181036040830152610a5281866108f5565b9050610a6160608301856109c7565b610a6e6080830184610a08565b9695505050505050565b6000602082019050610a8d60008301846109c7565b92915050565b600080fd5b600080fd5b7f4e487b7100000000000000000000000000000000000000000000000000000000600052604160045260246000fd5b610ad5826108e4565b810181811067ffffffffffffffff82111715610af457610af3610a9d565b5b80604052505050565b6000610b07610950565b9050610b138282610acc565b919050565b600067ffffffffffffffff821115610b3357610b32610a9d565b5b610b3c826108e4565b9050602081019050919050565b82818337600083830152505050565b6000610b6b610b6684610b18565b610afd565b905082815260208101848484011115610b8757610b86610a98565b5b610b92848285610b49565b509392505050565b600082601f830112610baf57610bae610a93565b5b8135610bbf848260208601610b58565b91505092915050565b60008060408385031215610bdf57610bde61095a565b5b600083013567ffffffffffffffff811115610bfd57610bfc61095f565b5b610c0985828601610b9a565b925050602083013567ffffffffffffffff811115610c2a57610c2961095f565b5b610c3685828601610b9a565b9150509250929050565b7f4e487b7100000000000000000000000000000000000000000000000000000000600052602260045260246000fd5b60006002820490506001821680610c8757607f821691505b60208210811415610c9b57610c9a610c40565b5b50919050565b7f4e487b7100000000000000000000000000000000000000000000000000000000600052601160045260246000fd5b6000610cdb82610964565b9150610ce683610964565b9250827fffffffffffffffffffffffffffffffffffffffffffffffffffffffffffffffff03821115610d1b57610d1a610ca1565b5b828201905092915050565b6000819050919050565b6000819050919050565b6000610d55610d50610d4b84610d26565b610d30565b610964565b9050919050565b610d6581610d3a565b82525050565b600060a082019050610d8060008301886109c7565b8181036020830152610d9281876108f5565b90508181036040830152610da681866108f5565b9050610db56060830185610d5c565b610dc26080830184610a08565b969550505050505056fea264697066735822122010c1473b4680254d69be0e59864133f50be7ff58ac80d1d6e00a158a903f561c64736f6c63430008090033",
  "immutableReferences": {},
  "source": "// SPDX-License-Identifier: MIT\npragma solidity >=0.4.22 <0.9.0;\n\ncontract ShowMeYourCat {\n  string public name = 'ShowMeYourCat';\n\n  uint public imageCount = 0;\n  mapping(uint => Image) public images;\n  struct Image {\n    uint id;\n    string hash;\n    string description;\n    uint tipAmount;\n    address payable author;\n  }\n\n  event ImageCreated(\n    uint id,\n    string hash,\n    string description,\n    uint tipAmount,\n    address payable author\n  );\n\n  event ImageTipped(\n    uint id,\n    string hash,\n    string description,\n    uint tipAmount,\n    address payable author\n  );\n\n  function uploadImage(string memory _imgHash, string memory _description) public {\n    require(bytes(_imgHash).length > 0);\n    require(bytes(_description).length > 0);\n    require(msg.sender != address(0x0));\n\n    imageCount = imageCount + 1;\n    images[imageCount] = Image(imageCount, _imgHash, _description, 0, payable(msg.sender));\n\n    emit ImageCreated(imageCount, _imgHash, _description, 0, payable(msg.sender));\n  }\n\n  function tipOwner(uint _id) public payable {\n    require(_id > 0 && _id <= imageCount);\n\n    Image memory _image = images[_id];\n    address payable _author = _image.author;\n    _author.transfer(msg.value);\n\n    _image.tipAmount = _image.tipAmount + msg.value;\n    images[_id] = _image;\n\n    emit ImageTipped(_id, _image.hash, _image.description, _image.tipAmount, _author);\n  }\n}",
  "sourcePath": "/Users/elopez/My/instagram-clone-blockchain/contracts/ShowMeYourCat.sol",
  "compiler": {
    "name": "solc",
    "version": "0.8.9+commit.e5eed63a.Emscripten.clang"
  },
  "schemaVersion": "3.4.3",
  "updatedAt": "2021-10-30T10:12:46.395Z",
  "networkType": "ethereum",
  "devdoc": {
    "kind": "dev",
    "methods": {},
    "version": 1
  },
  "userdoc": {
    "kind": "user",
    "methods": {},
    "version": 1
  }
}